{
  "contractName": "BoxV2",
  "abi": [
    {
      "inputs": [],
      "stateMutability": "nonpayable",
      "type": "constructor"
    },
    {
      "anonymous": false,
      "inputs": [
        {
          "indexed": false,
          "internalType": "uint8",
          "name": "version",
          "type": "uint8"
        }
      ],
      "name": "Initialized",
      "type": "event"
    },
    {
      "anonymous": false,
      "inputs": [
        {
          "indexed": false,
          "internalType": "uint256",
          "name": "value",
          "type": "uint256"
        }
      ],
      "name": "ValueChanged",
      "type": "event"
    },
    {
      "inputs": [
        {
          "internalType": "address",
          "name": "admin",
          "type": "address"
        }
      ],
      "name": "initialize",
      "outputs": [],
      "stateMutability": "nonpayable",
      "type": "function"
    },
    {
      "inputs": [
        {
          "internalType": "uint256",
          "name": "value",
          "type": "uint256"
        }
      ],
      "name": "store",
      "outputs": [],
      "stateMutability": "nonpayable",
      "type": "function"
    },
    {
      "inputs": [],
      "name": "retrieve",
      "outputs": [
        {
          "internalType": "uint256",
          "name": "",
          "type": "uint256"
        }
      ],
      "stateMutability": "view",
      "type": "function"
    }
  ],
  "bytecode": "0x608060405234801561001057600080fd5b50600061002360016100a660201b60201c565b90508015610047576001600060016101000a81548160ff0219169083151502179055505b80156100a05760008060016101000a81548160ff0219169083151502179055507f7f26b83ff96e1f2b6a682f133852f6798a09c465da95921460cefb384740249860016040516100979190610215565b60405180910390a15b506102d3565b60008060019054906101000a900460ff16156101275760018260ff161480156100df57506100dd306101a060201b6102451760201c565b155b61011e576040517f08c379a0000000000000000000000000000000000000000000000000000000008152600401610115906102b3565b60405180910390fd5b6000905061019b565b8160ff1660008054906101000a900460ff1660ff161061017c576040517f08c379a0000000000000000000000000000000000000000000000000000000008152600401610173906102b3565b60405180910390fd5b816000806101000a81548160ff021916908360ff160217905550600190505b919050565b6000808273ffffffffffffffffffffffffffffffffffffffff163b119050919050565b6000819050919050565b600060ff82169050919050565b6000819050919050565b60006101ff6101fa6101f5846101c3565b6101da565b6101cd565b9050919050565b61020f816101e4565b82525050565b600060208201905061022a6000830184610206565b92915050565b600082825260208201905092915050565b7f496e697469616c697a61626c653a20636f6e747261637420697320616c72656160008201527f647920696e697469616c697a6564000000000000000000000000000000000000602082015250565b600061029d602e83610230565b91506102a882610241565b604082019050919050565b600060208201905081810360008301526102cc81610290565b9050919050565b610627806102e26000396000f3fe608060405234801561001057600080fd5b50600436106100415760003560e01c80632e64cec1146100465780636057361d14610064578063c4d66de814610080575b600080fd5b61004e61009c565b60405161005b9190610371565b60405180910390f35b61007e600480360381019061007991906103bd565b6100a6565b005b61009a60048036038101906100959190610448565b610177565b005b6000600154905090565b600260009054906101000a900473ffffffffffffffffffffffffffffffffffffffff1673ffffffffffffffffffffffffffffffffffffffff163373ffffffffffffffffffffffffffffffffffffffff1614610136576040517f08c379a000000000000000000000000000000000000000000000000000000000815260040161012d906104d2565b60405180910390fd5b806001819055507f93fe6d397c74fdf1402a8b72e47b68512f0510d7b98a4bc4cbdf6ac7108b3c598160405161016c9190610371565b60405180910390a150565b60006101836001610268565b905080156101a7576001600060016101000a81548160ff0219169083151502179055505b81600260006101000a81548173ffffffffffffffffffffffffffffffffffffffff021916908373ffffffffffffffffffffffffffffffffffffffff16021790555080156102415760008060016101000a81548160ff0219169083151502179055507f7f26b83ff96e1f2b6a682f133852f6798a09c465da95921460cefb384740249860016040516102389190610544565b60405180910390a15b5050565b6000808273ffffffffffffffffffffffffffffffffffffffff163b119050919050565b60008060019054906101000a900460ff16156102df5760018260ff16148015610297575061029530610245565b155b6102d6576040517f08c379a00000000000000000000000000000000000000000000000000000000081526004016102cd906105d1565b60405180910390fd5b60009050610353565b8160ff1660008054906101000a900460ff1660ff1610610334576040517f08c379a000000000000000000000000000000000000000000000000000000000815260040161032b906105d1565b60405180910390fd5b816000806101000a81548160ff021916908360ff160217905550600190505b919050565b6000819050919050565b61036b81610358565b82525050565b60006020820190506103866000830184610362565b92915050565b600080fd5b61039a81610358565b81146103a557600080fd5b50565b6000813590506103b781610391565b92915050565b6000602082840312156103d3576103d261038c565b5b60006103e1848285016103a8565b91505092915050565b600073ffffffffffffffffffffffffffffffffffffffff82169050919050565b6000610415826103ea565b9050919050565b6104258161040a565b811461043057600080fd5b50565b6000813590506104428161041c565b92915050565b60006020828403121561045e5761045d61038c565b5b600061046c84828501610433565b91505092915050565b600082825260208201905092915050565b7f41646d696e426f783a206e6f742061646d696e00000000000000000000000000600082015250565b60006104bc601383610475565b91506104c782610486565b602082019050919050565b600060208201905081810360008301526104eb816104af565b9050919050565b6000819050919050565b600060ff82169050919050565b6000819050919050565b600061052e610529610524846104f2565b610509565b6104fc565b9050919050565b61053e81610513565b82525050565b60006020820190506105596000830184610535565b92915050565b7f496e697469616c697a61626c653a20636f6e747261637420697320616c72656160008201527f647920696e697469616c697a6564000000000000000000000000000000000000602082015250565b60006105bb602e83610475565b91506105c68261055f565b604082019050919050565b600060208201905081810360008301526105ea816105ae565b905091905056fea264697066735822122047e9e00de16f308ebf4d94bfdc263f3b0765941b275eddd53b66e8338296409e64736f6c634300080e0033",
  "immutableReferences": {},
  "source": "// SPDX-License-Identifier: MIT\npragma solidity ^0.8.0;\n\nimport \"@openzeppelin/contracts-upgradeable/proxy/utils/Initializable.sol\";\n\ncontract BoxV2 is Initializable {\n    uint256 private _value;\n    address private _admin;\n\n    // Emitted when the stored value changes\n    event ValueChanged(uint256 value);\n\n    function initialize(address admin) public initializer {\n        _admin = admin;\n    }\n\n    /// @custom:oz-upgrades-unsafe-allow constructor\n    constructor() initializer {}\n\n    // Stores a new value in the contract\n    function store(uint256 value) public {\n        require(msg.sender == _admin, \"AdminBox: not admin\");\n        _value = value;\n        emit ValueChanged(value);\n    }\n\n    // Reads the last stored value\n    function retrieve() public view returns (uint256) {\n        return _value;\n    }\n}",
  "sourcePath": "/home/vladimir/Desktop/milies-truffle/contracts/BoxV2.sol",
  "compiler": {
    "name": "solc",
    "version": "0.8.14+commit.80d49f37.Emscripten.clang"
  },
  "schemaVersion": "3.4.7",
  "updatedAt": "2022-06-15T14:23:57.477Z",
  "devdoc": {
    "kind": "dev",
    "methods": {
      "constructor": {
        "custom:oz-upgrades-unsafe-allow": "constructor"
      }
    },
    "version": 1
  },
  "userdoc": {
    "kind": "user",
    "methods": {},
    "version": 1
  }
}