{
  "contractName": "CollectSlavesForMilies",
  "abi": [
    {
      "inputs": [],
      "stateMutability": "nonpayable",
      "type": "constructor"
    },
    {
      "anonymous": false,
      "inputs": [
        {
          "indexed": true,
          "internalType": "address",
          "name": "owner",
          "type": "address"
        },
        {
          "indexed": true,
          "internalType": "address",
          "name": "approved",
          "type": "address"
        },
        {
          "indexed": true,
          "internalType": "uint256",
          "name": "tokenId",
          "type": "uint256"
        }
      ],
      "name": "Approval",
      "type": "event"
    },
    {
      "anonymous": false,
      "inputs": [
        {
          "indexed": true,
          "internalType": "address",
          "name": "owner",
          "type": "address"
        },
        {
          "indexed": true,
          "internalType": "address",
          "name": "operator",
          "type": "address"
        },
        {
          "indexed": false,
          "internalType": "bool",
          "name": "approved",
          "type": "bool"
        }
      ],
      "name": "ApprovalForAll",
      "type": "event"
    },
    {
      "anonymous": false,
      "inputs": [
        {
          "indexed": false,
          "internalType": "uint8",
          "name": "version",
          "type": "uint8"
        }
      ],
      "name": "Initialized",
      "type": "event"
    },
    {
      "anonymous": false,
      "inputs": [
        {
          "indexed": true,
          "internalType": "address",
          "name": "previousOwner",
          "type": "address"
        },
        {
          "indexed": true,
          "internalType": "address",
          "name": "newOwner",
          "type": "address"
        }
      ],
      "name": "OwnershipTransferred",
      "type": "event"
    },
    {
      "anonymous": false,
      "inputs": [
        {
          "indexed": false,
          "internalType": "address",
          "name": "account",
          "type": "address"
        }
      ],
      "name": "Paused",
      "type": "event"
    },
    {
      "anonymous": false,
      "inputs": [
        {
          "indexed": true,
          "internalType": "address",
          "name": "from",
          "type": "address"
        },
        {
          "indexed": true,
          "internalType": "address",
          "name": "to",
          "type": "address"
        },
        {
          "indexed": true,
          "internalType": "uint256",
          "name": "tokenId",
          "type": "uint256"
        }
      ],
      "name": "Transfer",
      "type": "event"
    },
    {
      "anonymous": false,
      "inputs": [
        {
          "indexed": false,
          "internalType": "address",
          "name": "account",
          "type": "address"
        }
      ],
      "name": "Unpaused",
      "type": "event"
    },
    {
      "inputs": [
        {
          "internalType": "address",
          "name": "to",
          "type": "address"
        },
        {
          "internalType": "uint256",
          "name": "tokenId",
          "type": "uint256"
        }
      ],
      "name": "approve",
      "outputs": [],
      "stateMutability": "nonpayable",
      "type": "function"
    },
    {
      "inputs": [
        {
          "internalType": "address",
          "name": "owner",
          "type": "address"
        }
      ],
      "name": "balanceOf",
      "outputs": [
        {
          "internalType": "uint256",
          "name": "",
          "type": "uint256"
        }
      ],
      "stateMutability": "view",
      "type": "function",
      "constant": true
    },
    {
      "inputs": [
        {
          "internalType": "uint256",
          "name": "tokenId",
          "type": "uint256"
        }
      ],
      "name": "getApproved",
      "outputs": [
        {
          "internalType": "address",
          "name": "",
          "type": "address"
        }
      ],
      "stateMutability": "view",
      "type": "function",
      "constant": true
    },
    {
      "inputs": [
        {
          "internalType": "address",
          "name": "owner",
          "type": "address"
        },
        {
          "internalType": "address",
          "name": "operator",
          "type": "address"
        }
      ],
      "name": "isApprovedForAll",
      "outputs": [
        {
          "internalType": "bool",
          "name": "",
          "type": "bool"
        }
      ],
      "stateMutability": "view",
      "type": "function",
      "constant": true
    },
    {
      "inputs": [],
      "name": "name",
      "outputs": [
        {
          "internalType": "string",
          "name": "",
          "type": "string"
        }
      ],
      "stateMutability": "view",
      "type": "function",
      "constant": true
    },
    {
      "inputs": [],
      "name": "owner",
      "outputs": [
        {
          "internalType": "address",
          "name": "",
          "type": "address"
        }
      ],
      "stateMutability": "view",
      "type": "function",
      "constant": true
    },
    {
      "inputs": [
        {
          "internalType": "uint256",
          "name": "tokenId",
          "type": "uint256"
        }
      ],
      "name": "ownerOf",
      "outputs": [
        {
          "internalType": "address",
          "name": "",
          "type": "address"
        }
      ],
      "stateMutability": "view",
      "type": "function",
      "constant": true
    },
    {
      "inputs": [],
      "name": "paused",
      "outputs": [
        {
          "internalType": "bool",
          "name": "",
          "type": "bool"
        }
      ],
      "stateMutability": "view",
      "type": "function",
      "constant": true
    },
    {
      "inputs": [],
      "name": "renounceOwnership",
      "outputs": [],
      "stateMutability": "nonpayable",
      "type": "function"
    },
    {
      "inputs": [
        {
          "internalType": "address",
          "name": "from",
          "type": "address"
        },
        {
          "internalType": "address",
          "name": "to",
          "type": "address"
        },
        {
          "internalType": "uint256",
          "name": "tokenId",
          "type": "uint256"
        }
      ],
      "name": "safeTransferFrom",
      "outputs": [],
      "stateMutability": "nonpayable",
      "type": "function"
    },
    {
      "inputs": [
        {
          "internalType": "address",
          "name": "from",
          "type": "address"
        },
        {
          "internalType": "address",
          "name": "to",
          "type": "address"
        },
        {
          "internalType": "uint256",
          "name": "tokenId",
          "type": "uint256"
        },
        {
          "internalType": "bytes",
          "name": "_data",
          "type": "bytes"
        }
      ],
      "name": "safeTransferFrom",
      "outputs": [],
      "stateMutability": "nonpayable",
      "type": "function"
    },
    {
      "inputs": [
        {
          "internalType": "address",
          "name": "operator",
          "type": "address"
        },
        {
          "internalType": "bool",
          "name": "approved",
          "type": "bool"
        }
      ],
      "name": "setApprovalForAll",
      "outputs": [],
      "stateMutability": "nonpayable",
      "type": "function"
    },
    {
      "inputs": [],
      "name": "symbol",
      "outputs": [
        {
          "internalType": "string",
          "name": "",
          "type": "string"
        }
      ],
      "stateMutability": "view",
      "type": "function",
      "constant": true
    },
    {
      "inputs": [
        {
          "internalType": "uint256",
          "name": "index",
          "type": "uint256"
        }
      ],
      "name": "tokenByIndex",
      "outputs": [
        {
          "internalType": "uint256",
          "name": "",
          "type": "uint256"
        }
      ],
      "stateMutability": "view",
      "type": "function",
      "constant": true
    },
    {
      "inputs": [
        {
          "internalType": "address",
          "name": "owner",
          "type": "address"
        },
        {
          "internalType": "uint256",
          "name": "index",
          "type": "uint256"
        }
      ],
      "name": "tokenOfOwnerByIndex",
      "outputs": [
        {
          "internalType": "uint256",
          "name": "",
          "type": "uint256"
        }
      ],
      "stateMutability": "view",
      "type": "function",
      "constant": true
    },
    {
      "inputs": [],
      "name": "totalSupply",
      "outputs": [
        {
          "internalType": "uint256",
          "name": "",
          "type": "uint256"
        }
      ],
      "stateMutability": "view",
      "type": "function",
      "constant": true
    },
    {
      "inputs": [
        {
          "internalType": "address",
          "name": "from",
          "type": "address"
        },
        {
          "internalType": "address",
          "name": "to",
          "type": "address"
        },
        {
          "internalType": "uint256",
          "name": "tokenId",
          "type": "uint256"
        }
      ],
      "name": "transferFrom",
      "outputs": [],
      "stateMutability": "nonpayable",
      "type": "function"
    },
    {
      "inputs": [
        {
          "internalType": "address",
          "name": "newOwner",
          "type": "address"
        }
      ],
      "name": "transferOwnership",
      "outputs": [],
      "stateMutability": "nonpayable",
      "type": "function"
    },
    {
      "inputs": [],
      "name": "initialize",
      "outputs": [],
      "stateMutability": "nonpayable",
      "type": "function"
    },
    {
      "inputs": [],
      "name": "pause",
      "outputs": [],
      "stateMutability": "nonpayable",
      "type": "function"
    },
    {
      "inputs": [],
      "name": "unpause",
      "outputs": [],
      "stateMutability": "nonpayable",
      "type": "function"
    },
    {
      "inputs": [
        {
          "internalType": "address",
          "name": "to",
          "type": "address"
        },
        {
          "internalType": "string",
          "name": "uri",
          "type": "string"
        }
      ],
      "name": "safeMint",
      "outputs": [],
      "stateMutability": "nonpayable",
      "type": "function"
    },
    {
      "inputs": [
        {
          "internalType": "uint256",
          "name": "tokenId",
          "type": "uint256"
        }
      ],
      "name": "tokenURI",
      "outputs": [
        {
          "internalType": "string",
          "name": "",
          "type": "string"
        }
      ],
      "stateMutability": "view",
      "type": "function",
      "constant": true
    },
    {
      "inputs": [
        {
          "internalType": "bytes4",
          "name": "interfaceId",
          "type": "bytes4"
        }
      ],
      "name": "supportsInterface",
      "outputs": [
        {
          "internalType": "bool",
          "name": "",
          "type": "bool"
        }
      ],
      "stateMutability": "view",
      "type": "function",
      "constant": true
    }
  ],
  "bytecode": "0x60806040523480156200001157600080fd5b50620000226200002860201b60201c565b6200020f565b6200003a60ff6200003d60201b60201c565b50565b60008060019054906101000a900460ff1615620000c75760018260ff161480156200007b575062000079306200014360201b620010721760201c565b155b620000bd576040517f08c379a0000000000000000000000000000000000000000000000000000000008152600401620000b490620001ed565b60405180910390fd5b600090506200013e565b8160ff1660008054906101000a900460ff1660ff16106200011f576040517f08c379a00000000000000000000000000000000000000000000000000000000081526004016200011690620001ed565b60405180910390fd5b816000806101000a81548160ff021916908360ff160217905550600190505b919050565b6000808273ffffffffffffffffffffffffffffffffffffffff163b119050919050565b600082825260208201905092915050565b7f496e697469616c697a61626c653a20636f6e747261637420697320616c72656160008201527f647920696e697469616c697a6564000000000000000000000000000000000000602082015250565b6000620001d5602e8362000166565b9150620001e28262000177565b604082019050919050565b600060208201905081810360008301526200020881620001c6565b9050919050565b61450b806200021f6000396000f3fe608060405234801561001057600080fd5b50600436106101585760003560e01c806370a08231116100c3578063a22cb4651161007c578063a22cb4651461038f578063b88d4fde146103ab578063c87b56dd146103c7578063d204c45e146103f7578063e985e9c514610413578063f2fde38b1461044357610158565b806370a0823114610305578063715018a6146103355780638129fc1c1461033f5780638456cb59146103495780638da5cb5b1461035357806395d89b411461037157610158565b80632f745c59116101155780632f745c59146102315780633f4ba83a1461026157806342842e0e1461026b5780634f6ccce7146102875780635c975abb146102b75780636352211e146102d557610158565b806301ffc9a71461015d57806306fdde031461018d578063081812fc146101ab578063095ea7b3146101db57806318160ddd146101f757806323b872dd14610215575b600080fd5b61017760048036038101906101729190612b41565b61045f565b6040516101849190612b89565b60405180910390f35b6101956104ed565b6040516101a29190612c3d565b60405180910390f35b6101c560048036038101906101c09190612c95565b61057f565b6040516101d29190612d03565b60405180910390f35b6101f560048036038101906101f09190612d4a565b610604565b005b6101ff61071b565b60405161020c9190612d99565b60405180910390f35b61022f600480360381019061022a9190612db4565b610728565b005b61024b60048036038101906102469190612d4a565b610788565b6040516102589190612d99565b60405180910390f35b61026961082d565b005b61028560048036038101906102809190612db4565b6108b3565b005b6102a1600480360381019061029c9190612c95565b6108d3565b6040516102ae9190612d99565b60405180910390f35b6102bf610944565b6040516102cc9190612b89565b60405180910390f35b6102ef60048036038101906102ea9190612c95565b61095b565b6040516102fc9190612d03565b60405180910390f35b61031f600480360381019061031a9190612e07565b610a0c565b60405161032c9190612d99565b60405180910390f35b61033d610ac3565b005b610347610b4b565b005b610351610c6b565b005b61035b610cf1565b6040516103689190612d03565b60405180910390f35b610379610d1c565b6040516103869190612c3d565b60405180910390f35b6103a960048036038101906103a49190612e60565b610dae565b005b6103c560048036038101906103c09190612fd5565b610dc4565b005b6103e160048036038101906103dc9190612c95565b610e26565b6040516103ee9190612c3d565b60405180910390f35b610411600480360381019061040c91906130f9565b610e38565b005b61042d60048036038101906104289190613155565b610ee7565b60405161043a9190612b89565b60405180910390f35b61045d60048036038101906104589190612e07565b610f7b565b005b6000610469611095565b73ffffffffffffffffffffffffffffffffffffffff16610487610cf1565b73ffffffffffffffffffffffffffffffffffffffff16146104dd576040517f08c379a00000000000000000000000000000000000000000000000000000000081526004016104d4906131e1565b60405180910390fd5b6104e68261109d565b9050919050565b6060606580546104fc90613230565b80601f016020809104026020016040519081016040528092919081815260200182805461052890613230565b80156105755780601f1061054a57610100808354040283529160200191610575565b820191906000526020600020905b81548152906001019060200180831161055857829003601f168201915b5050505050905090565b600061058a82611117565b6105c9576040517f08c379a00000000000000000000000000000000000000000000000000000000081526004016105c0906132d3565b60405180910390fd5b6069600083815260200190815260200160002060009054906101000a900473ffffffffffffffffffffffffffffffffffffffff169050919050565b600061060f8261095b565b90508073ffffffffffffffffffffffffffffffffffffffff168373ffffffffffffffffffffffffffffffffffffffff160361067f576040517f08c379a000000000000000000000000000000000000000000000000000000000815260040161067690613365565b60405180910390fd5b8073ffffffffffffffffffffffffffffffffffffffff1661069e611095565b73ffffffffffffffffffffffffffffffffffffffff1614806106cd57506106cc816106c7611095565b610ee7565b5b61070c576040517f08c379a0000000000000000000000000000000000000000000000000000000008152600401610703906133f7565b60405180910390fd5b6107168383611183565b505050565b6000609980549050905090565b610739610733611095565b8261123c565b610778576040517f08c379a000000000000000000000000000000000000000000000000000000000815260040161076f90613489565b60405180910390fd5b61078383838361131a565b505050565b600061079383610a0c565b82106107d4576040517f08c379a00000000000000000000000000000000000000000000000000000000081526004016107cb9061351b565b60405180910390fd5b609760008473ffffffffffffffffffffffffffffffffffffffff1673ffffffffffffffffffffffffffffffffffffffff168152602001908152602001600020600083815260200190815260200160002054905092915050565b610835611095565b73ffffffffffffffffffffffffffffffffffffffff16610853610cf1565b73ffffffffffffffffffffffffffffffffffffffff16146108a9576040517f08c379a00000000000000000000000000000000000000000000000000000000081526004016108a0906131e1565b60405180910390fd5b6108b1611580565b565b6108ce83838360405180602001604052806000815250610dc4565b505050565b60006108dd61071b565b821061091e576040517f08c379a0000000000000000000000000000000000000000000000000000000008152600401610915906135ad565b60405180910390fd5b60998281548110610932576109316135cd565b5b90600052602060002001549050919050565b600060fb60009054906101000a900460ff16905090565b6000806067600084815260200190815260200160002060009054906101000a900473ffffffffffffffffffffffffffffffffffffffff169050600073ffffffffffffffffffffffffffffffffffffffff168173ffffffffffffffffffffffffffffffffffffffff1603610a03576040517f08c379a00000000000000000000000000000000000000000000000000000000081526004016109fa9061366e565b60405180910390fd5b80915050919050565b60008073ffffffffffffffffffffffffffffffffffffffff168273ffffffffffffffffffffffffffffffffffffffff1603610a7c576040517f08c379a0000000000000000000000000000000000000000000000000000000008152600401610a7390613700565b60405180910390fd5b606860008373ffffffffffffffffffffffffffffffffffffffff1673ffffffffffffffffffffffffffffffffffffffff168152602001908152602001600020549050919050565b610acb611095565b73ffffffffffffffffffffffffffffffffffffffff16610ae9610cf1565b73ffffffffffffffffffffffffffffffffffffffff1614610b3f576040517f08c379a0000000000000000000000000000000000000000000000000000000008152600401610b36906131e1565b60405180910390fd5b610b496000611622565b565b6000610b5760016116ea565b90508015610b7b576001600060016101000a81548160ff0219169083151502179055505b610bef6040518060400160405280601381526020017f4265636f6d65536c6176654f664d696c696573000000000000000000000000008152506040518060400160405280600481526020017f42534f4d000000000000000000000000000000000000000000000000000000008152506117da565b610bf7611837565b610bff611888565b610c076118d9565b610c0f611932565b8015610c685760008060016101000a81548160ff0219169083151502179055507f7f26b83ff96e1f2b6a682f133852f6798a09c465da95921460cefb38474024986001604051610c5f9190613772565b60405180910390a15b50565b610c73611095565b73ffffffffffffffffffffffffffffffffffffffff16610c91610cf1565b73ffffffffffffffffffffffffffffffffffffffff1614610ce7576040517f08c379a0000000000000000000000000000000000000000000000000000000008152600401610cde906131e1565b60405180910390fd5b610cef61198b565b565b600061012d60009054906101000a900473ffffffffffffffffffffffffffffffffffffffff16905090565b606060668054610d2b90613230565b80601f0160208091040260200160405190810160405280929190818152602001828054610d5790613230565b8015610da45780601f10610d7957610100808354040283529160200191610da4565b820191906000526020600020905b815481529060010190602001808311610d8757829003601f168201915b5050505050905090565b610dc0610db9611095565b8383611a2e565b5050565b610dd5610dcf611095565b8361123c565b610e14576040517f08c379a0000000000000000000000000000000000000000000000000000000008152600401610e0b90613489565b60405180910390fd5b610e2084848484611b9a565b50505050565b6060610e3182611bf6565b9050919050565b610e40611095565b73ffffffffffffffffffffffffffffffffffffffff16610e5e610cf1565b73ffffffffffffffffffffffffffffffffffffffff1614610eb4576040517f08c379a0000000000000000000000000000000000000000000000000000000008152600401610eab906131e1565b60405180910390fd5b6000610ec161015f611d47565b9050610ece61015f611d55565b610ed88382611d6b565b610ee28183611d89565b505050565b6000606a60008473ffffffffffffffffffffffffffffffffffffffff1673ffffffffffffffffffffffffffffffffffffffff16815260200190815260200160002060008373ffffffffffffffffffffffffffffffffffffffff1673ffffffffffffffffffffffffffffffffffffffff16815260200190815260200160002060009054906101000a900460ff16905092915050565b610f83611095565b73ffffffffffffffffffffffffffffffffffffffff16610fa1610cf1565b73ffffffffffffffffffffffffffffffffffffffff1614610ff7576040517f08c379a0000000000000000000000000000000000000000000000000000000008152600401610fee906131e1565b60405180910390fd5b600073ffffffffffffffffffffffffffffffffffffffff168173ffffffffffffffffffffffffffffffffffffffff1603611066576040517f08c379a000000000000000000000000000000000000000000000000000000000815260040161105d906137ff565b60405180910390fd5b61106f81611622565b50565b6000808273ffffffffffffffffffffffffffffffffffffffff163b119050919050565b600033905090565b60007f780e9d63000000000000000000000000000000000000000000000000000000007bffffffffffffffffffffffffffffffffffffffffffffffffffffffff1916827bffffffffffffffffffffffffffffffffffffffffffffffffffffffff19161480611110575061110f82611df6565b5b9050919050565b60008073ffffffffffffffffffffffffffffffffffffffff166067600084815260200190815260200160002060009054906101000a900473ffffffffffffffffffffffffffffffffffffffff1673ffffffffffffffffffffffffffffffffffffffff1614159050919050565b816069600083815260200190815260200160002060006101000a81548173ffffffffffffffffffffffffffffffffffffffff021916908373ffffffffffffffffffffffffffffffffffffffff160217905550808273ffffffffffffffffffffffffffffffffffffffff166111f68361095b565b73ffffffffffffffffffffffffffffffffffffffff167f8c5be1e5ebec7d5bd14f71427d1e84f3dd0314c0f7b2291e5b200ac8c7c3b92560405160405180910390a45050565b600061124782611117565b611286576040517f08c379a000000000000000000000000000000000000000000000000000000000815260040161127d90613891565b60405180910390fd5b60006112918361095b565b90508073ffffffffffffffffffffffffffffffffffffffff168473ffffffffffffffffffffffffffffffffffffffff1614806112d357506112d28185610ee7565b5b8061131157508373ffffffffffffffffffffffffffffffffffffffff166112f98461057f565b73ffffffffffffffffffffffffffffffffffffffff16145b91505092915050565b8273ffffffffffffffffffffffffffffffffffffffff1661133a8261095b565b73ffffffffffffffffffffffffffffffffffffffff1614611390576040517f08c379a000000000000000000000000000000000000000000000000000000000815260040161138790613923565b60405180910390fd5b600073ffffffffffffffffffffffffffffffffffffffff168273ffffffffffffffffffffffffffffffffffffffff16036113ff576040517f08c379a00000000000000000000000000000000000000000000000000000000081526004016113f6906139b5565b60405180910390fd5b61140a838383611ed8565b611415600082611183565b6001606860008573ffffffffffffffffffffffffffffffffffffffff1673ffffffffffffffffffffffffffffffffffffffff16815260200190815260200160002060008282546114659190613a04565b925050819055506001606860008473ffffffffffffffffffffffffffffffffffffffff1673ffffffffffffffffffffffffffffffffffffffff16815260200190815260200160002060008282546114bc9190613a38565b92505081905550816067600083815260200190815260200160002060006101000a81548173ffffffffffffffffffffffffffffffffffffffff021916908373ffffffffffffffffffffffffffffffffffffffff160217905550808273ffffffffffffffffffffffffffffffffffffffff168473ffffffffffffffffffffffffffffffffffffffff167fddf252ad1be2c89b69c2b068fc378daa952ba7f163c4a11628f55a4df523b3ef60405160405180910390a461157b838383611f30565b505050565b611588610944565b6115c7576040517f08c379a00000000000000000000000000000000000000000000000000000000081526004016115be90613ada565b60405180910390fd5b600060fb60006101000a81548160ff0219169083151502179055507f5db9ee0a495bf2e6ff9c91a7834c1ba4fdd244a5e8aa4e537bd38aeae4b073aa61160b611095565b6040516116189190612d03565b60405180910390a1565b600061012d60009054906101000a900473ffffffffffffffffffffffffffffffffffffffff1690508161012d60006101000a81548173ffffffffffffffffffffffffffffffffffffffff021916908373ffffffffffffffffffffffffffffffffffffffff1602179055508173ffffffffffffffffffffffffffffffffffffffff168173ffffffffffffffffffffffffffffffffffffffff167f8be0079c531659141344cd1fd0a4f28419497f9722a3daafe3b4186f6b6457e060405160405180910390a35050565b60008060019054906101000a900460ff16156117615760018260ff16148015611719575061171730611072565b155b611758576040517f08c379a000000000000000000000000000000000000000000000000000000000815260040161174f90613b6c565b60405180910390fd5b600090506117d5565b8160ff1660008054906101000a900460ff1660ff16106117b6576040517f08c379a00000000000000000000000000000000000000000000000000000000081526004016117ad90613b6c565b60405180910390fd5b816000806101000a81548160ff021916908360ff160217905550600190505b919050565b600060019054906101000a900460ff16611829576040517f08c379a000000000000000000000000000000000000000000000000000000000815260040161182090613bfe565b60405180910390fd5b6118338282611f35565b5050565b600060019054906101000a900460ff16611886576040517f08c379a000000000000000000000000000000000000000000000000000000000815260040161187d90613bfe565b60405180910390fd5b565b600060019054906101000a900460ff166118d7576040517f08c379a00000000000000000000000000000000000000000000000000000000081526004016118ce90613bfe565b60405180910390fd5b565b600060019054906101000a900460ff16611928576040517f08c379a000000000000000000000000000000000000000000000000000000000815260040161191f90613bfe565b60405180910390fd5b611930611fa8565b565b600060019054906101000a900460ff16611981576040517f08c379a000000000000000000000000000000000000000000000000000000000815260040161197890613bfe565b60405180910390fd5b611989612014565b565b611993610944565b156119d3576040517f08c379a00000000000000000000000000000000000000000000000000000000081526004016119ca90613c6a565b60405180910390fd5b600160fb60006101000a81548160ff0219169083151502179055507f62e78cea01bee320cd4e420270b5ea74000d11b0c9f74754ebdbfc544b05a258611a17611095565b604051611a249190612d03565b60405180910390a1565b8173ffffffffffffffffffffffffffffffffffffffff168373ffffffffffffffffffffffffffffffffffffffff1603611a9c576040517f08c379a0000000000000000000000000000000000000000000000000000000008152600401611a9390613cd6565b60405180910390fd5b80606a60008573ffffffffffffffffffffffffffffffffffffffff1673ffffffffffffffffffffffffffffffffffffffff16815260200190815260200160002060008473ffffffffffffffffffffffffffffffffffffffff1673ffffffffffffffffffffffffffffffffffffffff16815260200190815260200160002060006101000a81548160ff0219169083151502179055508173ffffffffffffffffffffffffffffffffffffffff168373ffffffffffffffffffffffffffffffffffffffff167f17307eab39ab6107e8899845ad3d59bd9653f200f220920489ca2b5937696c3183604051611b8d9190612b89565b60405180910390a3505050565b611ba584848461131a565b611bb184848484612075565b611bf0576040517f08c379a0000000000000000000000000000000000000000000000000000000008152600401611be790613d68565b60405180910390fd5b50505050565b6060611c0182611117565b611c40576040517f08c379a0000000000000000000000000000000000000000000000000000000008152600401611c3790613dfa565b60405180910390fd5b600060c960008481526020019081526020016000208054611c6090613230565b80601f0160208091040260200160405190810160405280929190818152602001828054611c8c90613230565b8015611cd95780601f10611cae57610100808354040283529160200191611cd9565b820191906000526020600020905b815481529060010190602001808311611cbc57829003601f168201915b505050505090506000611cea6121fc565b90506000815103611cff578192505050611d42565b600082511115611d34578082604051602001611d1c929190613e56565b60405160208183030381529060405292505050611d42565b611d3d84612213565b925050505b919050565b600081600001549050919050565b6001816000016000828254019250508190555050565b611d858282604051806020016040528060008152506122ba565b5050565b611d9282611117565b611dd1576040517f08c379a0000000000000000000000000000000000000000000000000000000008152600401611dc890613eec565b60405180910390fd5b8060c960008481526020019081526020016000209081611df191906140ae565b505050565b60007f80ac58cd000000000000000000000000000000000000000000000000000000007bffffffffffffffffffffffffffffffffffffffffffffffffffffffff1916827bffffffffffffffffffffffffffffffffffffffffffffffffffffffff19161480611ec157507f5b5e139f000000000000000000000000000000000000000000000000000000007bffffffffffffffffffffffffffffffffffffffffffffffffffffffff1916827bffffffffffffffffffffffffffffffffffffffffffffffffffffffff1916145b80611ed15750611ed082612315565b5b9050919050565b611ee0610944565b15611f20576040517f08c379a0000000000000000000000000000000000000000000000000000000008152600401611f1790613c6a565b60405180910390fd5b611f2b83838361237f565b505050565b505050565b600060019054906101000a900460ff16611f84576040517f08c379a0000000000000000000000000000000000000000000000000000000008152600401611f7b90613bfe565b60405180910390fd5b8160659081611f9391906140ae565b508060669081611fa391906140ae565b505050565b600060019054906101000a900460ff16611ff7576040517f08c379a0000000000000000000000000000000000000000000000000000000008152600401611fee90613bfe565b60405180910390fd5b600060fb60006101000a81548160ff021916908315150217905550565b600060019054906101000a900460ff16612063576040517f08c379a000000000000000000000000000000000000000000000000000000000815260040161205a90613bfe565b60405180910390fd5b61207361206e611095565b611622565b565b60006120968473ffffffffffffffffffffffffffffffffffffffff16611072565b156121ef578373ffffffffffffffffffffffffffffffffffffffff1663150b7a026120bf611095565b8786866040518563ffffffff1660e01b81526004016120e194939291906141d5565b6020604051808303816000875af192505050801561211d57506040513d601f19601f8201168201806040525081019061211a9190614236565b60015b61219f573d806000811461214d576040519150601f19603f3d011682016040523d82523d6000602084013e612152565b606091505b506000815103612197576040517f08c379a000000000000000000000000000000000000000000000000000000000815260040161218e90613d68565b60405180910390fd5b805181602001fd5b63150b7a0260e01b7bffffffffffffffffffffffffffffffffffffffffffffffffffffffff1916817bffffffffffffffffffffffffffffffffffffffffffffffffffffffff1916149150506121f4565b600190505b949350505050565b606060405180602001604052806000815250905090565b606061221e82611117565b61225d576040517f08c379a0000000000000000000000000000000000000000000000000000000008152600401612254906142d5565b60405180910390fd5b60006122676121fc565b9050600081511161228757604051806020016040528060008152506122b2565b8061229184612491565b6040516020016122a2929190613e56565b6040516020818303038152906040525b915050919050565b6122c483836125f1565b6122d16000848484612075565b612310576040517f08c379a000000000000000000000000000000000000000000000000000000000815260040161230790613d68565b60405180910390fd5b505050565b60007f01ffc9a7000000000000000000000000000000000000000000000000000000007bffffffffffffffffffffffffffffffffffffffffffffffffffffffff1916827bffffffffffffffffffffffffffffffffffffffffffffffffffffffff1916149050919050565b61238a8383836127ca565b600073ffffffffffffffffffffffffffffffffffffffff168373ffffffffffffffffffffffffffffffffffffffff16036123cc576123c7816127cf565b61240b565b8173ffffffffffffffffffffffffffffffffffffffff168373ffffffffffffffffffffffffffffffffffffffff161461240a576124098382612818565b5b5b600073ffffffffffffffffffffffffffffffffffffffff168273ffffffffffffffffffffffffffffffffffffffff160361244d5761244881612985565b61248c565b8273ffffffffffffffffffffffffffffffffffffffff168273ffffffffffffffffffffffffffffffffffffffff161461248b5761248a8282612a56565b5b5b505050565b6060600082036124d8576040518060400160405280600181526020017f300000000000000000000000000000000000000000000000000000000000000081525090506125ec565b600082905060005b6000821461250a5780806124f3906142f5565b915050600a82612503919061436c565b91506124e0565b60008167ffffffffffffffff81111561252657612525612eaa565b5b6040519080825280601f01601f1916602001820160405280156125585781602001600182028036833780820191505090505b5090505b600085146125e5576001826125719190613a04565b9150600a85612580919061439d565b603061258c9190613a38565b60f81b8183815181106125a2576125a16135cd565b5b60200101907effffffffffffffffffffffffffffffffffffffffffffffffffffffffffffff1916908160001a905350600a856125de919061436c565b945061255c565b8093505050505b919050565b600073ffffffffffffffffffffffffffffffffffffffff168273ffffffffffffffffffffffffffffffffffffffff1603612660576040517f08c379a00000000000000000000000000000000000000000000000000000000081526004016126579061441a565b60405180910390fd5b61266981611117565b156126a9576040517f08c379a00000000000000000000000000000000000000000000000000000000081526004016126a090614486565b60405180910390fd5b6126b560008383611ed8565b6001606860008473ffffffffffffffffffffffffffffffffffffffff1673ffffffffffffffffffffffffffffffffffffffff16815260200190815260200160002060008282546127059190613a38565b92505081905550816067600083815260200190815260200160002060006101000a81548173ffffffffffffffffffffffffffffffffffffffff021916908373ffffffffffffffffffffffffffffffffffffffff160217905550808273ffffffffffffffffffffffffffffffffffffffff16600073ffffffffffffffffffffffffffffffffffffffff167fddf252ad1be2c89b69c2b068fc378daa952ba7f163c4a11628f55a4df523b3ef60405160405180910390a46127c660008383611f30565b5050565b505050565b609980549050609a600083815260200190815260200160002081905550609981908060018154018082558091505060019003906000526020600020016000909190919091505550565b6000600161282584610a0c565b61282f9190613a04565b9050600060986000848152602001908152602001600020549050818114612914576000609760008673ffffffffffffffffffffffffffffffffffffffff1673ffffffffffffffffffffffffffffffffffffffff168152602001908152602001600020600084815260200190815260200160002054905080609760008773ffffffffffffffffffffffffffffffffffffffff1673ffffffffffffffffffffffffffffffffffffffff168152602001908152602001600020600084815260200190815260200160002081905550816098600083815260200190815260200160002081905550505b6098600084815260200190815260200160002060009055609760008573ffffffffffffffffffffffffffffffffffffffff1673ffffffffffffffffffffffffffffffffffffffff16815260200190815260200160002060008381526020019081526020016000206000905550505050565b600060016099805490506129999190613a04565b90506000609a60008481526020019081526020016000205490506000609983815481106129c9576129c86135cd565b5b9060005260206000200154905080609983815481106129eb576129ea6135cd565b5b906000526020600020018190555081609a600083815260200190815260200160002081905550609a6000858152602001908152602001600020600090556099805480612a3a57612a396144a6565b5b6001900381819060005260206000200160009055905550505050565b6000612a6183610a0c565b905081609760008573ffffffffffffffffffffffffffffffffffffffff1673ffffffffffffffffffffffffffffffffffffffff168152602001908152602001600020600083815260200190815260200160002081905550806098600084815260200190815260200160002081905550505050565b6000604051905090565b600080fd5b600080fd5b60007fffffffff0000000000000000000000000000000000000000000000000000000082169050919050565b612b1e81612ae9565b8114612b2957600080fd5b50565b600081359050612b3b81612b15565b92915050565b600060208284031215612b5757612b56612adf565b5b6000612b6584828501612b2c565b91505092915050565b60008115159050919050565b612b8381612b6e565b82525050565b6000602082019050612b9e6000830184612b7a565b92915050565b600081519050919050565b600082825260208201905092915050565b60005b83811015612bde578082015181840152602081019050612bc3565b83811115612bed576000848401525b50505050565b6000601f19601f8301169050919050565b6000612c0f82612ba4565b612c198185612baf565b9350612c29818560208601612bc0565b612c3281612bf3565b840191505092915050565b60006020820190508181036000830152612c578184612c04565b905092915050565b6000819050919050565b612c7281612c5f565b8114612c7d57600080fd5b50565b600081359050612c8f81612c69565b92915050565b600060208284031215612cab57612caa612adf565b5b6000612cb984828501612c80565b91505092915050565b600073ffffffffffffffffffffffffffffffffffffffff82169050919050565b6000612ced82612cc2565b9050919050565b612cfd81612ce2565b82525050565b6000602082019050612d186000830184612cf4565b92915050565b612d2781612ce2565b8114612d3257600080fd5b50565b600081359050612d4481612d1e565b92915050565b60008060408385031215612d6157612d60612adf565b5b6000612d6f85828601612d35565b9250506020612d8085828601612c80565b9150509250929050565b612d9381612c5f565b82525050565b6000602082019050612dae6000830184612d8a565b92915050565b600080600060608486031215612dcd57612dcc612adf565b5b6000612ddb86828701612d35565b9350506020612dec86828701612d35565b9250506040612dfd86828701612c80565b9150509250925092565b600060208284031215612e1d57612e1c612adf565b5b6000612e2b84828501612d35565b91505092915050565b612e3d81612b6e565b8114612e4857600080fd5b50565b600081359050612e5a81612e34565b92915050565b60008060408385031215612e7757612e76612adf565b5b6000612e8585828601612d35565b9250506020612e9685828601612e4b565b9150509250929050565b600080fd5b600080fd5b7f4e487b7100000000000000000000000000000000000000000000000000000000600052604160045260246000fd5b612ee282612bf3565b810181811067ffffffffffffffff82111715612f0157612f00612eaa565b5b80604052505050565b6000612f14612ad5565b9050612f208282612ed9565b919050565b600067ffffffffffffffff821115612f4057612f3f612eaa565b5b612f4982612bf3565b9050602081019050919050565b82818337600083830152505050565b6000612f78612f7384612f25565b612f0a565b905082815260208101848484011115612f9457612f93612ea5565b5b612f9f848285612f56565b509392505050565b600082601f830112612fbc57612fbb612ea0565b5b8135612fcc848260208601612f65565b91505092915050565b60008060008060808587031215612fef57612fee612adf565b5b6000612ffd87828801612d35565b945050602061300e87828801612d35565b935050604061301f87828801612c80565b925050606085013567ffffffffffffffff8111156130405761303f612ae4565b5b61304c87828801612fa7565b91505092959194509250565b600067ffffffffffffffff82111561307357613072612eaa565b5b61307c82612bf3565b9050602081019050919050565b600061309c61309784613058565b612f0a565b9050828152602081018484840111156130b8576130b7612ea5565b5b6130c3848285612f56565b509392505050565b600082601f8301126130e0576130df612ea0565b5b81356130f0848260208601613089565b91505092915050565b600080604083850312156131105761310f612adf565b5b600061311e85828601612d35565b925050602083013567ffffffffffffffff81111561313f5761313e612ae4565b5b61314b858286016130cb565b9150509250929050565b6000806040838503121561316c5761316b612adf565b5b600061317a85828601612d35565b925050602061318b85828601612d35565b9150509250929050565b7f4f776e61626c653a2063616c6c6572206973206e6f7420746865206f776e6572600082015250565b60006131cb602083612baf565b91506131d682613195565b602082019050919050565b600060208201905081810360008301526131fa816131be565b9050919050565b7f4e487b7100000000000000000000000000000000000000000000000000000000600052602260045260246000fd5b6000600282049050600182168061324857607f821691505b60208210810361325b5761325a613201565b5b50919050565b7f4552433732313a20617070726f76656420717565727920666f72206e6f6e657860008201527f697374656e7420746f6b656e0000000000000000000000000000000000000000602082015250565b60006132bd602c83612baf565b91506132c882613261565b604082019050919050565b600060208201905081810360008301526132ec816132b0565b9050919050565b7f4552433732313a20617070726f76616c20746f2063757272656e74206f776e6560008201527f7200000000000000000000000000000000000000000000000000000000000000602082015250565b600061334f602183612baf565b915061335a826132f3565b604082019050919050565b6000602082019050818103600083015261337e81613342565b9050919050565b7f4552433732313a20617070726f76652063616c6c6572206973206e6f74206f7760008201527f6e6572206e6f7220617070726f76656420666f7220616c6c0000000000000000602082015250565b60006133e1603883612baf565b91506133ec82613385565b604082019050919050565b60006020820190508181036000830152613410816133d4565b9050919050565b7f4552433732313a207472616e736665722063616c6c6572206973206e6f74206f60008201527f776e6572206e6f7220617070726f766564000000000000000000000000000000602082015250565b6000613473603183612baf565b915061347e82613417565b604082019050919050565b600060208201905081810360008301526134a281613466565b9050919050565b7f455243373231456e756d657261626c653a206f776e657220696e646578206f7560008201527f74206f6620626f756e6473000000000000000000000000000000000000000000602082015250565b6000613505602b83612baf565b9150613510826134a9565b604082019050919050565b60006020820190508181036000830152613534816134f8565b9050919050565b7f455243373231456e756d657261626c653a20676c6f62616c20696e646578206f60008201527f7574206f6620626f756e64730000000000000000000000000000000000000000602082015250565b6000613597602c83612baf565b91506135a28261353b565b604082019050919050565b600060208201905081810360008301526135c68161358a565b9050919050565b7f4e487b7100000000000000000000000000000000000000000000000000000000600052603260045260246000fd5b7f4552433732313a206f776e657220717565727920666f72206e6f6e657869737460008201527f656e7420746f6b656e0000000000000000000000000000000000000000000000602082015250565b6000613658602983612baf565b9150613663826135fc565b604082019050919050565b600060208201905081810360008301526136878161364b565b9050919050565b7f4552433732313a2062616c616e636520717565727920666f7220746865207a6560008201527f726f206164647265737300000000000000000000000000000000000000000000602082015250565b60006136ea602a83612baf565b91506136f58261368e565b604082019050919050565b60006020820190508181036000830152613719816136dd565b9050919050565b6000819050919050565b600060ff82169050919050565b6000819050919050565b600061375c61375761375284613720565b613737565b61372a565b9050919050565b61376c81613741565b82525050565b60006020820190506137876000830184613763565b92915050565b7f4f776e61626c653a206e6577206f776e657220697320746865207a65726f206160008201527f6464726573730000000000000000000000000000000000000000000000000000602082015250565b60006137e9602683612baf565b91506137f48261378d565b604082019050919050565b60006020820190508181036000830152613818816137dc565b9050919050565b7f4552433732313a206f70657261746f7220717565727920666f72206e6f6e657860008201527f697374656e7420746f6b656e0000000000000000000000000000000000000000602082015250565b600061387b602c83612baf565b91506138868261381f565b604082019050919050565b600060208201905081810360008301526138aa8161386e565b9050919050565b7f4552433732313a207472616e736665722066726f6d20696e636f72726563742060008201527f6f776e6572000000000000000000000000000000000000000000000000000000602082015250565b600061390d602583612baf565b9150613918826138b1565b604082019050919050565b6000602082019050818103600083015261393c81613900565b9050919050565b7f4552433732313a207472616e7366657220746f20746865207a65726f2061646460008201527f7265737300000000000000000000000000000000000000000000000000000000602082015250565b600061399f602483612baf565b91506139aa82613943565b604082019050919050565b600060208201905081810360008301526139ce81613992565b9050919050565b7f4e487b7100000000000000000000000000000000000000000000000000000000600052601160045260246000fd5b6000613a0f82612c5f565b9150613a1a83612c5f565b925082821015613a2d57613a2c6139d5565b5b828203905092915050565b6000613a4382612c5f565b9150613a4e83612c5f565b9250827fffffffffffffffffffffffffffffffffffffffffffffffffffffffffffffffff03821115613a8357613a826139d5565b5b828201905092915050565b7f5061757361626c653a206e6f7420706175736564000000000000000000000000600082015250565b6000613ac4601483612baf565b9150613acf82613a8e565b602082019050919050565b60006020820190508181036000830152613af381613ab7565b9050919050565b7f496e697469616c697a61626c653a20636f6e747261637420697320616c72656160008201527f647920696e697469616c697a6564000000000000000000000000000000000000602082015250565b6000613b56602e83612baf565b9150613b6182613afa565b604082019050919050565b60006020820190508181036000830152613b8581613b49565b9050919050565b7f496e697469616c697a61626c653a20636f6e7472616374206973206e6f74206960008201527f6e697469616c697a696e67000000000000000000000000000000000000000000602082015250565b6000613be8602b83612baf565b9150613bf382613b8c565b604082019050919050565b60006020820190508181036000830152613c1781613bdb565b9050919050565b7f5061757361626c653a2070617573656400000000000000000000000000000000600082015250565b6000613c54601083612baf565b9150613c5f82613c1e565b602082019050919050565b60006020820190508181036000830152613c8381613c47565b9050919050565b7f4552433732313a20617070726f766520746f2063616c6c657200000000000000600082015250565b6000613cc0601983612baf565b9150613ccb82613c8a565b602082019050919050565b60006020820190508181036000830152613cef81613cb3565b9050919050565b7f4552433732313a207472616e7366657220746f206e6f6e20455243373231526560008201527f63656976657220696d706c656d656e7465720000000000000000000000000000602082015250565b6000613d52603283612baf565b9150613d5d82613cf6565b604082019050919050565b60006020820190508181036000830152613d8181613d45565b9050919050565b7f45524337323155524953746f726167653a2055524920717565727920666f722060008201527f6e6f6e6578697374656e7420746f6b656e000000000000000000000000000000602082015250565b6000613de4603183612baf565b9150613def82613d88565b604082019050919050565b60006020820190508181036000830152613e1381613dd7565b9050919050565b600081905092915050565b6000613e3082612ba4565b613e3a8185613e1a565b9350613e4a818560208601612bc0565b80840191505092915050565b6000613e628285613e25565b9150613e6e8284613e25565b91508190509392505050565b7f45524337323155524953746f726167653a2055524920736574206f66206e6f6e60008201527f6578697374656e7420746f6b656e000000000000000000000000000000000000602082015250565b6000613ed6602e83612baf565b9150613ee182613e7a565b604082019050919050565b60006020820190508181036000830152613f0581613ec9565b9050919050565b60008190508160005260206000209050919050565b60006020601f8301049050919050565b600082821b905092915050565b600060088302613f6e7fffffffffffffffffffffffffffffffffffffffffffffffffffffffffffffffff82613f31565b613f788683613f31565b95508019841693508086168417925050509392505050565b6000613fab613fa6613fa184612c5f565b613737565b612c5f565b9050919050565b6000819050919050565b613fc583613f90565b613fd9613fd182613fb2565b848454613f3e565b825550505050565b600090565b613fee613fe1565b613ff9818484613fbc565b505050565b5b8181101561401d57614012600082613fe6565b600181019050613fff565b5050565b601f8211156140625761403381613f0c565b61403c84613f21565b8101602085101561404b578190505b61405f61405785613f21565b830182613ffe565b50505b505050565b600082821c905092915050565b600061408560001984600802614067565b1980831691505092915050565b600061409e8383614074565b9150826002028217905092915050565b6140b782612ba4565b67ffffffffffffffff8111156140d0576140cf612eaa565b5b6140da8254613230565b6140e5828285614021565b600060209050601f8311600181146141185760008415614106578287015190505b6141108582614092565b865550614178565b601f19841661412686613f0c565b60005b8281101561414e57848901518255600182019150602085019450602081019050614129565b8683101561416b5784890151614167601f891682614074565b8355505b6001600288020188555050505b505050505050565b600081519050919050565b600082825260208201905092915050565b60006141a782614180565b6141b1818561418b565b93506141c1818560208601612bc0565b6141ca81612bf3565b840191505092915050565b60006080820190506141ea6000830187612cf4565b6141f76020830186612cf4565b6142046040830185612d8a565b8181036060830152614216818461419c565b905095945050505050565b60008151905061423081612b15565b92915050565b60006020828403121561424c5761424b612adf565b5b600061425a84828501614221565b91505092915050565b7f4552433732314d657461646174613a2055524920717565727920666f72206e6f60008201527f6e6578697374656e7420746f6b656e0000000000000000000000000000000000602082015250565b60006142bf602f83612baf565b91506142ca82614263565b604082019050919050565b600060208201905081810360008301526142ee816142b2565b9050919050565b600061430082612c5f565b91507fffffffffffffffffffffffffffffffffffffffffffffffffffffffffffffffff8203614332576143316139d5565b5b600182019050919050565b7f4e487b7100000000000000000000000000000000000000000000000000000000600052601260045260246000fd5b600061437782612c5f565b915061438283612c5f565b9250826143925761439161433d565b5b828204905092915050565b60006143a882612c5f565b91506143b383612c5f565b9250826143c3576143c261433d565b5b828206905092915050565b7f4552433732313a206d696e7420746f20746865207a65726f2061646472657373600082015250565b6000614404602083612baf565b915061440f826143ce565b602082019050919050565b60006020820190508181036000830152614433816143f7565b9050919050565b7f4552433732313a20746f6b656e20616c7265616479206d696e74656400000000600082015250565b6000614470601c83612baf565b915061447b8261443a565b602082019050919050565b6000602082019050818103600083015261449f81614463565b9050919050565b7f4e487b7100000000000000000000000000000000000000000000000000000000600052603160045260246000fdfea264697066735822122085bf29f64993adc744d652846b6b4632aeb84b4c852391316c3836d511d9a0d864736f6c634300080f0033",
  "immutableReferences": {},
  "source": "// SPDX-License-Identifier: MIT\npragma solidity ^0.8.4;\n\nimport \"@openzeppelin/contracts-upgradeable/access/OwnableUpgradeable.sol\";\nimport \"@openzeppelin/contracts-upgradeable/proxy/utils/Initializable.sol\";\nimport \"@openzeppelin/contracts-upgradeable/utils/CountersUpgradeable.sol\";\nimport \"@openzeppelin/contracts-upgradeable/security/PausableUpgradeable.sol\";\nimport \"@openzeppelin/contracts-upgradeable/token/ERC721/ERC721Upgradeable.sol\";\nimport \"@openzeppelin/contracts-upgradeable/token/ERC721/extensions/ERC721URIStorageUpgradeable.sol\";\nimport \"@openzeppelin/contracts-upgradeable/token/ERC721/extensions/ERC721EnumerableUpgradeable.sol\";\n\ncontract CollectSlavesForMilies is Initializable, ERC721Upgradeable, ERC721EnumerableUpgradeable, ERC721URIStorageUpgradeable, PausableUpgradeable, OwnableUpgradeable {\n    using CountersUpgradeable for CountersUpgradeable.Counter;\n\n    CountersUpgradeable.Counter private _tokenIdCounter;\n\n    /// @custom:oz-upgrades-unsafe-allow constructor\n    constructor() {\n        _disableInitializers();\n    }\n\n    function initialize() initializer public {\n        __ERC721_init(\"BecomeSlaveOfMilies\", \"BSOM\");\n        __ERC721Enumerable_init();\n        __ERC721URIStorage_init();\n        __Pausable_init();\n        __Ownable_init();\n    }\n\n    function pause() public onlyOwner {\n        _pause();\n    }\n\n    function unpause() public onlyOwner {\n        _unpause();\n    }\n\n    function safeMint(address to, string memory uri) public onlyOwner {\n        uint256 tokenId = _tokenIdCounter.current();\n        _tokenIdCounter.increment();\n        _safeMint(to, tokenId);\n        _setTokenURI(tokenId, uri);\n    }\n\n    function _beforeTokenTransfer(address from, address to, uint256 tokenId)\n        internal\n        whenNotPaused\n        override(ERC721Upgradeable, ERC721EnumerableUpgradeable)\n    {\n        super._beforeTokenTransfer(from, to, tokenId);\n    }\n\n    function _burn(uint256 tokenId)\n        internal\n        override(ERC721Upgradeable, ERC721URIStorageUpgradeable)\n    {\n        super._burn(tokenId);\n    }\n\n    function tokenURI(uint256 tokenId)\n        public\n        view\n        override(ERC721Upgradeable, ERC721URIStorageUpgradeable)\n        returns (string memory)\n    {\n        return super.tokenURI(tokenId);\n    }\n\n    function supportsInterface(bytes4 interfaceId)\n        public\n        view\n        onlyOwner\n        override(ERC721Upgradeable, ERC721EnumerableUpgradeable)\n        returns (bool)\n    {\n        return super.supportsInterface(interfaceId);\n    }\n}",
  "sourcePath": "/home/vladimir/Desktop/milies-truffle/contracts/CollectSlavesForMilies.sol",
  "compiler": {
    "name": "solc",
    "version": "0.8.15+commit.e14f2714.Emscripten.clang"
  },
  "schemaVersion": "3.4.7",
  "updatedAt": "2022-06-17T13:29:05.523Z",
  "networkType": "ethereum",
  "devdoc": {
    "kind": "dev",
    "methods": {
      "approve(address,uint256)": {
        "details": "See {IERC721-approve}."
      },
      "balanceOf(address)": {
        "details": "See {IERC721-balanceOf}."
      },
      "constructor": {
        "custom:oz-upgrades-unsafe-allow": "constructor"
      },
      "getApproved(uint256)": {
        "details": "See {IERC721-getApproved}."
      },
      "isApprovedForAll(address,address)": {
        "details": "See {IERC721-isApprovedForAll}."
      },
      "name()": {
        "details": "See {IERC721Metadata-name}."
      },
      "owner()": {
        "details": "Returns the address of the current owner."
      },
      "ownerOf(uint256)": {
        "details": "See {IERC721-ownerOf}."
      },
      "paused()": {
        "details": "Returns true if the contract is paused, and false otherwise."
      },
      "renounceOwnership()": {
        "details": "Leaves the contract without owner. It will not be possible to call `onlyOwner` functions anymore. Can only be called by the current owner. NOTE: Renouncing ownership will leave the contract without an owner, thereby removing any functionality that is only available to the owner."
      },
      "safeTransferFrom(address,address,uint256)": {
        "details": "See {IERC721-safeTransferFrom}."
      },
      "safeTransferFrom(address,address,uint256,bytes)": {
        "details": "See {IERC721-safeTransferFrom}."
      },
      "setApprovalForAll(address,bool)": {
        "details": "See {IERC721-setApprovalForAll}."
      },
      "symbol()": {
        "details": "See {IERC721Metadata-symbol}."
      },
      "tokenByIndex(uint256)": {
        "details": "See {IERC721Enumerable-tokenByIndex}."
      },
      "tokenOfOwnerByIndex(address,uint256)": {
        "details": "See {IERC721Enumerable-tokenOfOwnerByIndex}."
      },
      "totalSupply()": {
        "details": "See {IERC721Enumerable-totalSupply}."
      },
      "transferFrom(address,address,uint256)": {
        "details": "See {IERC721-transferFrom}."
      },
      "transferOwnership(address)": {
        "details": "Transfers ownership of the contract to a new account (`newOwner`). Can only be called by the current owner."
      }
    },
    "version": 1
  },
  "userdoc": {
    "kind": "user",
    "methods": {},
    "version": 1
  }
}